:100000000C9454110C947C110C947C110C947C1164
:100010000C947C110C947C110C947C110C947C112C
:100020000C947C110C947C110C947C110C947C111C
:100030000C947C110C947C110C947C110C947C110C
:100040000C94EE270C947C110C945E280C943828A8
:100050000C947C110C947C110C947C110C947C11EC
:100060000C947C110C947C1100002C453404BD7C54
:10007000011944340ABD51022C443403BDC7032C7A
:10008000453404BD43052F443401BDD3062D44340B
:1000900004BE52082C453404BDCE092C433404BEA2
:1000A0003F0B2C453404BDBB0C2C453404BD370E2E
:1000B0000A311A08D000007FE00000003FFFC000B6
:1000C000000FFFFF000003FFFFF800007FFFFFE0CD
:1000D000000FFFFFFF0001FFFFFFF8003FFC03FFE1
:1000E0008003FF000FFC007FE0007FE00FFC0003B7
:1000F000FE00FF80001FF01FF00000FF01FF000066
:100100000FF81FE000007F83FE000007F83FC000EB
:10011000007FC3FC000003FC7FC000003FC7FC0061
:100120000003FC7F8000003FE7F8000003FE7F80B3
:1001300000001FE7F8000001FEFF8000001FEFF83D
:10014000000001FEFF8000001FEFF8000001FFFF2C
:100150008000001FFFF8000001FFFF0000001FFFEC
:10016000F0000001FFFF0000001FFFF0000001FF92
:10017000FF0000001FFFF0000001FFFF0000001F54
:10018000FFF0000001FFFF0000001FFFF000000172
:10019000FFFF8000001FFFF8000001FFFF8000004C
:1001A0001FEFF8000001FEFF8000001FE7F80000CD
:1001B00001FE7F8000001FE7F8000003FE7F800043
:1001C000003FE7FC000003FC7FC000003FC3FC00D1
:1001D0000003FC3FC000007FC3FE000007F81FE0E3
:1001E00000007F81FF00000FF81FF00000FF00FFFC
:1001F00080001FF00FFC0003FE007FE0007FE0079F
:10020000FF000FFC003FFC03FF8001FFFFFFF80031
:100210000FFFFFFF00007FFFFFE00003FFFFF8007C
:10022000000FFFFF0000003FFFC00000007FE00064
:100230000000001F80000FC0000FE00007F0000763
:10024000F80007FC0007FE0007FF0007FF8007FF1C
:10025000C007FFE00FFFF00FFFF80FFFFC1FFFFECE
:100260003FFEFF7FFE7FFFFE3FFFFC1FFFFC0FFFF7
:10027000F807FFF803FFF001FFE000FFC0007F80F8
:10028000003FC0001FE0000FF00007F80003FC0073
:1002900001FE0000FF00007F80003FC0001FE00063
:1002A0000FF00007F80003FC0001FE0000FF000053
:1002B0007F80003FC0001FE0000FF00007F8000340
:1002C000FC0001FE0000FF00007F80003FC0001F17
:1002D000E0000FF00007F80003FC0001FE0000FF43
:1002E00000007F80003FC0001FE0000FF00007F813
:1002F0000003FC0001FE0000FF00007F80003FC003
:10030000001FE0000FF000003FF80000003FFFF08A
:1003100000000FFFFFC00003FFFFFF0000FFFFFF13
:10032000F8001FFFFFFFE003FFFFFFFF003FFC009F
:10033000FFF007FF0003FF80FFC0001FFC0FF80065
:1003400000FFC1FF000007FE1FF000003FE3FE00BA
:100350000001FE3FE000001FF3FC000001FF3FC072
:1003600000000FF3FC000000FF7FC000000FF07CD6
:10037000000000FF000000000FF000000001FF007F
:100380000000001FF000000001FF000000003FE03F
:1003900000000003FE000000007FE000000007FCFA
:1003A00000000000FFC00000001FF800000003FF75
:1003B000800000003FF000000007FE00000000FF8A
:1003C000C00000001FFC00000003FF800000007F51
:1003D000F00000001FFE00000003FFC00000007FCF
:1003E000F80000000FFF00000001FFE00000003FE8
:1003F000FC00000007FF00000001FFE00000003FDC
:10040000FC00000007FF80000000FFF00000001F5C
:10041000FE00000003FFC00000007FF00000000F9E
:10042000FE00000001FFC00000003FF800000007D0
:10043000FF00000000FFE00000000FFC00000001D2
:10044000FF800000001FF000000003FF000000001C
:100450003FFFFFFFFFF7FFFFFFFFFF7FFFFFFFFFF4
:10046000FFFFFFFFFFFFFFFFFFFFFFFFFFFFFFFF9C
:10047000FFFFFFFFFFFFFFFFFFFFFFFF0000FFC0C9
:100480000000007FFF8000001FFFFE000007FFFF4D
:10049000F80000FFFFFFC0001FFFFFFE0003FFFF8B
:1004A000FFF0007FF807FF800FFE001FFC00FFC079
:1004B000007FE01FF80003FE01FF00003FE03FE087
:1004C0000001FF03FE00000FF07FC00000FF07FCEB
:1004D00000000FF87FC00000FF87F800000FF8034E
:1004E000800000FF800000000FF800000000FF0007
:1004F0000000000FF000000001FF000000001FF0EE
:1005000000000003FE000000007FE00000001FFC70
:1005100000000003FF80000001FFF0000007FFFE65
:100520000000007FFFC0000007FFF00000007FFF19
:10053000C0000007FFFF000000FFFFFC00000FFFEE
:10054000FFE00000801FFF000000007FF8000000B7
:1005500003FF800000000FFC000000007FC00000CF
:100560000007FE000000003FE000000003FE000066
:1005700000001FF000000001FF000000001FF0005D
:10058000000001FF000000001FF0F0000001FFFF6D
:100590008000001FFFF8000001FFFF8000001FF730
:1005A000F8000003FE7FC000003FE7FC000007FEEC
:1005B0007FE000007FC3FF00000FFC3FF00001FF61
:1005C00081FF80003FF80FFE000FFF00FFF803FFE0
:1005D000E007FFFFFFFC003FFFFFFF8001FFFFFF81
:1005E000F00007FFFFFC00003FFFFF8000007FFFDF
:1005F000C0000000FFE0000000000001FC0000005F
:100600000007F8000000001FF0000000007FE0007D
:10061000000000FFC000000003FF800000000FFF8B
:10062000000000001FFE000000007FFC0000000131
:10063000FFF800000003FFF00000000FFFE00000E3
:10064000003FFFC0000000FFFF80000001FFFF002F
:10065000000007FBFE0000001FE7FC0000003FCF8A
:10066000F8000000FF1FF0000003FC3FE00000075F
:10067000F87FC000001FE0FF8000007F81FF0000C6
:1006800001FE03FE000003FC07FC00000FF00FF862
:1006900000003FC01FF000007F803FE00001FE002F
:1006A0007FC00007F800FF80000FF001FF00003F4F
:1006B000C003FE0000FF0007FC0003FE000FF8006F
:1006C00007F8001FF0001FE0003FE0007F80007F80
:1006D000C000FF0000FF8003FC0001FF000FF000DE
:1006E00003FE001FE00007FC007F80000FF801FE02
:1006F00000001FF003FC00003FE00FFFFFFFFFFFC3
:10070000FFFFFFFFFFFFFFFFFFFFFFFFFFFFFFFFF9
:10071000FFFFFFFFFFFFFFFFFFFFFFFFFFFFFFFFE9
:10072000FFFFFFFFFFFFFFFFFFF00000007FC000A3
:10073000000000FF8000000001FF0000000003FE39
:100740000000000007FC000000000FF8000000009F
:100750001FF0000000003FE0000000007FC000002C
:100760000000FF8000000001FF0000000003FE0009
:1007700000000007FC000000000FF8000000001F50
:10078000F0000000003FE00000FFFFFFFF8007FFD8
:10079000FFFFFC007FFFFFFFE003FFFFFFFF001FE5
:1007A000FFFFFFF800FFFFFFFFC007FFFFFFFE0096
:1007B0007FFFFFFFF003FC000000001FE0000000CF
:1007C00000FF0000000007F8000000007FC00000EC
:1007D0000003FC000000001FE000000000FF00001C
:1007E000000007F8000000003FC000000003FC000C
:1007F0000000001FE000000000FF0000000007F8FC
:10080000000000003F807FC00003FC3FFFE0001FAE
:10081000E7FFFFC000FFFFFFFF0007FFFFFFFE0035
:100820003FFFFFFFF803FFFFFFFFE01FFFC01FFFB9
:1008300080FFF0001FFC07FF00007FF03FE0000199
:10084000FFC3FE000007FE01E000001FF8000000EB
:10085000007FC000000003FE000000000FF8000051
:1008600000007FC000000003FE000000001FF00039
:100870000000007F8000000003FC000000001FF06B
:1008800000000000FF8000000007F8000000003FAB
:10089000C000000001FE038000001FF7FC00000004
:1008A000FFBFE0000007FDFF0000003FCFFC00009D
:1008B00003FE3FE000001FF1FF000001FF0FFC00FE
:1008C000000FF83FF00000FF81FFC0000FFC07FFA2
:1008D0000000FFC01FFC001FFC00FFF803FFE00347
:1008E000FFFFFFFE000FFFFFFFE0003FFFFFFE00E6
:1008F000007FFFFFC00001FFFFF8000001FFFF00C5
:10090000000001FFC0000000001FF80000001FFFF2
:10091000F0000007FFFFC00001FFFFFF00003FFFE6
:10092000FFF80007FFFFFFC000FFFFFFFE001FFEF4
:1009300001FFE003FF8007FF007FF0001FF807FCC6
:100940000000FF80FFC0000FFC0FF800007FC1FF18
:10095000000007FC1FE000003FC3FE000003FE3F55
:10096000C000003F83FC000000003FC00000000703
:10097000F8000000007F8000000007F80000000081
:100980007F800000000FF000000000FF000FF0006B
:100990000FF00FFFF000FF03FFFFC00FF07FFFFE1F
:1009A00000FF1FFFFFF00FF3FFFFFFC0FF7FFFFF00
:1009B000FC0FFFFC01FFE0FFFF0007FF0FFFE0005F
:1009C0003FF8FFF80001FF8FFF00000FFCFFF00071
:1009D000007FCFFE000003FEFFC000003FEFFC00E1
:1009E0000003FEFFC000001FEFF8000001FFFF80C2
:1009F00000001FFFF8000001FFFF8000001FFFF84C
:100A0000000001FFFF8000001FFFF8000001FF7FD2
:100A10008000001FF7F8000001FF7FC000001FF7F3
:100A2000FC000001FE7FC000001FE3FE000003FE8B
:100A30003FE000003FE1FF000007FC1FF000007FE7
:100A4000C1FF80000FF80FFC0001FF807FE0003F36
:100A5000F007FF8007FF003FFE01FFE001FFFFFFFF
:100A6000FC000FFFFFFF80007FFFFFF00001FFFF92
:100A7000FE00000FFFFF8000003FFFE00000003F8E
:100A8000F00000FFFFFFFFFFFFFFFFFFFFFFFFFF83
:100A9000FFFFFFFFFFFFFFFFFFFFFFFFFFFFFFFF66
:100AA000FFFFFFFFFFFFFFFFFFFFFFFFFFFFFE0056
:100AB0000000007FC00000000FF800000001FF8070
:100AC0000000003FF000000003FE000000007FC0B7
:100AD0000000000FFC00000000FF800000001FF07D
:100AE00000000003FF000000003FE000000007FCE2
:100AF00000000000FFC00000000FF800000001FF30
:100B0000800000001FF000000003FE000000003F16
:100B1000E000000007FC000000007FC00000000FA4
:100B2000F800000000FF800000001FF0000000013E
:100B3000FF000000003FE000000003FE0000000096
:100B40007FC000000007FC000000007FC000000024
:100B50000FF800000000FF800000001FF000000000
:100B600001FF000000001FF000000003FE00000075
:100B7000003FE000000003FE000000003FC0000056
:100B80000007FC000000007FC000000007F8000024
:100B90000000FF800000000FF800000000FF800050
:100BA00000000FF000000000FF000000001FF00038
:100BB000000001FF000000001FF000000001FE0027
:100BC0000000001FE000000003FE000000003FE006
:100BD00000000003FE000000003FE000000003FEF4
:100BE000000000003FE000000003FC000000003FA8
:100BF000C000000000007FE00000007FFFC0000098
:100C00001FFFFF000003FFFFFC0000FFFFFFE000ED
:100C10001FFFFFFF0003FFFFFFF8003FFC03FFC0C3
:100C200007FF000FFE00FFC0007FE00FF80003FF8A
:100C300001FF80001FF01FF00000FF81FF00000F88
:100C4000F81FE00000FF81FE000007F81FE0000031
:100C50007F81FE000007F81FE000007F81FE00009A
:100C600007F81FE000007F81FF00000FF81FF00071
:100C700000FF80FF80001FF00FFC0003FF007FE0FB
:100C8000007FE007FF000FFC003FFC03FFC000FFF8
:100C9000FFFFF00007FFFFFE00001FFFFF800000C6
:100CA000FFFFF000007FFFFFE0001FFFFFFF0003DA
:100CB000FFFFFFFC007FF803FFE00FFE0007FF01CE
:100CC000FF80003FF83FF00001FF83FE00000FFCB3
:100CD0007FE000007FC7FC000003FE7F8000003F34
:100CE000EFF8000001FFFF8000001FFFF800000187
:100CF000FFFF0000000FFFF0000000FFFF000000FA
:100D00000FFFF0000000FFFF0000000FFFF80000E1
:100D100001FFFF8000001FFFF8000001FF7FC000FF
:100D2000001FE7FC000003FE7FE000007FE3FE0001
:100D30000007FC3FF00000FFC1FFC0001FF80FFEDE
:100D40000007FF00FFFC01FFF007FFFFFFFE003F71
:100D5000FFFFFFC001FFFFFFF00007FFFFFE0000E5
:100D60001FFFFF8000007FFFE00000007FE0000029
:100D70000000FFC00000007FFF8000001FFFFE009A
:100D80000007FFFFF80000FFFFFFC0001FFFFFFF8D
:100D90000003FFFFFFF8007FFC03FFC00FFF000F01
:100DA000FC01FFC0003FE01FF80001FF03FF00004F
:100DB0000FF03FF00000FF87FE000007F87FC00043
:100DC000007FC7FC000003FC7FC000003FCFF8009D
:100DD0000003FEFF8000001FEFF8000001FEFF800F
:100DE00000001FEFF0000001FEFF0000001FFFF0F9
:100DF000000001FFFF0000001FFFF0000001FFFFE7
:100E00008000001FFFF8000003FFFF8000003FF795
:100E1000F8000003FF7FC000003FF7FC000007FF61
:100E20003FE00000FFF3FF00000FFF3FF80001FF6D
:100E3000F1FFC0003FFF0FFE000FFFF0FFF803FEC1
:100E4000FF07FFFFFFCFF03FFFFFFCFF01FFFFFFAA
:100E50000FF007FFFFE0FF003FFFF80FF000FFFE7D
:100E600000FF0001FF001FE000000001FE00000085
:100E7000001FE000000001FE000000001FE0000075
:100E80000003FC000000003FC000000003FC0F80D6
:100E900000007FC7F8000007F87FC00000FF83FC58
:100EA00000000FF03FC00001FF03FE00003FE01F05
:100EB000F00003FE01FF8000FFC00FFC001FFC00DC
:100EC000FFF007FF8007FFFFFFF0003FFFFFFE007E
:100ED00001FFFFFFC0000FFFFFF000003FFFFE001B
:100EE0000000FFFF00000001FF800000FFFFFFFF88
:100EF000FFFFFFFFFFFFFFC0000000000000000039
:100F000000000000000000000000000000000000E1
:100F10000000000000000000000000000000FFFFD3
:100F2000FFFFFFFFFFFFFFFFFFC000000000050005
:100F3000010000020D0502F4040005050601F40895
:100F4000000A0D0A00F4190008100A01F329000E26
:100F50000D1001F440000B0D0C01F45200020503CA
:100F600001F4540004110601F45D0004110601F4BB
:100F7000660005050701F46A0009080B01F7730014
:100F800001050502FF740004020601FC7500010260
:100F90000502FF7600050D0500F47F00080D0A012B
:100FA000F48C00050D0A02F49500080D0A01F4A264
:100FB00000080D0A01F4AF00090D0A00F4BE000894
:100FC0000D0A01F4CB00080D0A01F4D800080D0A3F
:100FD00001F4E500080D0A01F4F200080D0A01F41D
:100FE000FF0001090502F80101010C0502F80301E7
:100FF00009090B01F60E0109060B01F81501090993
:101000000B01F62001080D0A01F42D011111120146
:10101000F452010C0D0C00F466010A0D0C01F4777A
:10102000010B0D0D01F489010B0D0D01F49B010A5B
:101030000D0C01F4AC01090D0B01F4BB010C0D0EFC
:1010400001F4CF010B0D0D01F4E101010D0502F4D6
:10105000E301080D0900F4F0010B0D0C01F402028C
:10106000080D0A01F40F020D0D0F01F425020B0DFE
:101070000D01F437020C0D0E01F44B020A0D0C01A8
:10108000F45C020C0E0E01F471020C0D0D01F485DE
:10109000020A0D0C01F496020B0D0B00F4A8020BD2
:1010A0000D0D01F4BA020C0D0C00F4CE02110D115D
:1010B00000F4EA020C0D0C00F4FE020C0D0C00F41E
:1010C00012030B0D0B00F4240304110501F42D038E
:1010D000050D0500F4360304110500F43F0308076D
:1010E0000800F446030A010A00034803030206014C
:1010F000F44903080A0A01F75303080D0A01F460D2
:1011000003080A0901F76A03080D0A01F4770308C6
:101110000A0A01F78103060D0500F48B03080E0A85
:1011200001F79903080D0A01F4A603020D0401F466
:10113000AA03041104FFF4B303080D0901F4C0036A
:10114000020D0401F4C4030D0A0F01F7D503080AC8
:101150000A01F7DF03080A0A01F7E903080E0A018A
:10116000F7F703080E0A01F70504050A0601F70C54
:1011700004070A0901F71504050D0500F41E04080B
:101180000A0A01F72804090A0900F734040D0A0DB8
:1011900000F74504090A0900F75104090E0900F790
:1011A0006104090A0900F76D0405110601F47804C9
:1011B00001110502F47B0406110600F488040903FA
:1011C0000B01F9FEAAA280DEF72900088661184407
:1011D000FFC4433088FFC88621984400103CF6D3F2
:1011E000D0D07C3E171391D3F63C10107023210809
:1011F0008423208983240733809306CC13108CC268
:101200001210381C06C18C310360381F0676C69850
:10121000730E3363C4FE8013264CCCCCCC46221014
:10122000C462331111133264C0255CA500080402A6
:101230001FFFF8402010F8FFC008C423108462117B
:1012400088003C66C3C38381818183C3C3663C1924
:10125000DFB98C6318C631803C66C3C30303060C38
:10126000387040FFFF3C66C2C3061C06030383C3FD
:10127000663C020303814121918884FF8100804004
:10128000207F7F4040DCE6C30101C3C3663C3C666F
:10129000C3C09CE6C3C3C1C3C3663CFFFF06060CC4
:1012A00008181830303020203C66C3C3463C66C363
:1012B0008181C3663C3C66C38383C3E73903C3C2F1
:1012C0006E3CC180C1F00183C78E0C0380780F0192
:1012D00080FFFFC0000FFFFC80701E01C01871E18D
:1012E000C080003C66C3C303060E08181800181817
:1012F00007F0071E0C018400463D32328B30C510CA
:101300006298214C11A619999D8473830008C01C12
:101310003C3807F0000600E00F00B01981983083D8
:101320000C3FC606606406C030FF3FEC0B02C1BF35
:10133000CFFB03C0F03C0FFEFF001F073981E03CEC
:101340000180300600C0780D831CE1F0FF1FF3031D
:10135000603C0780F01E03C0780F037FCFF0FFFFD3
:10136000FC0300C03FEFFB00C0300C03FFFFC0FFD9
:10137000FFF0180C0603FDFEC06030180C000F8350
:101380009E606403C00C00C3FC3FC0340360339E06
:101390000F80C0780F01E03C07FFFFFE03C0780F0D
:1013A00001E03C06FFF803030303030303030343C5
:1013B000427E3CC0D8330C630CC1B83F0730C31821
:1013C0007306606C0EC0C0C0C0C0C0C0C0C0C0C08A
:1013D000FFFFE03F01FC1FA0FD05EC6F227913CD5C
:1013E0009E28F1478E3C2180C07C0FC1F83D879834
:1013F000F31E33C3786F07E07C0E1F839C606C0381
:10140000C03C03C03C03C03C0360639C1F80FF3FA3
:10141000FC0F03C0F03FFBF8C0300C0300C0001FFE
:10142000839C606C03C03C03C03C03C03C3361E35D
:101430009C1FE001FF8C1CC06C06C06C0CFF8C7004
:10144000C18C18C0CC06C0603E1FEC1B03C01E013F
:10145000F00700F03C0DFE3F00FFFFFC10020040D3
:101460000801002004008010020040C0780F01E055
:101470003C0780F01E03C06809833FC1F0C03402FE
:1014800060660630C30C1081981980900F006006CA
:1014900000C1C1A0E09850CC2C663631111088886C
:1014A0006C6C36340A0A0505038380C180606304CE
:1014B00030C1980F00600600F019819830C606C050
:1014C00070C0260630C1981980F0060060060060E2
:1014D00006006006007FCFF80700C0300C0300E074
:1014E000180601807FFFFEFCCCCCCCCCCCCCCCF061
:1014F000861086108430843080F3333333333333B3
:1015000033F0181C3C34266243FFC0CC3EE6C303D4
:101510000F7FC383CF7BC0C0C0DCF6C3C1C1C1C3D2
:10152000C3E6DC3C66C380808083C3663C03030360
:101530003B6FC383838383C36F3F3C66C381FF805C
:10154000C0C3673C3CC23E208208208208203B6F1B
:10155000C383838383C36F3B0383EE7CC0C0C0DC43
:10156000F6C3C3C3C3C3C3C3C3F3FFFFC033033353
:10157000333333333BE0C0C0C0C6CCD8F0F0D8CC56
:10158000CCC6C3FFFFFFC0DCF73DF0C7843C21E1C0
:101590000F087843C21E10C0DCF6C3C3C3C3C3C365
:1015A000C3C33C66C381818181C3663CDCF6C3C191
:1015B000C1C1C1C3E6DCC0C0C0C03B6FC38383836D
:1015C00083C36F3B03030303FF718C6318C6007D65
:1015D0009E1E0783C1C1EEF82319F6318C631843B0
:1015E00080C3C3C3C3C3C3C3C36F7BC1A098CC6252
:1015F00021B050281C0400C21E3891C4CA6653167C
:10160000D0A6871C38C0C60063318D8381C0E0D866
:101610006C6360C0C1A098C46221B058281C060247
:10162000030703807F01818080C0C0C0C0C07FC02D
:101630003918C631888218C6318438FFFF80E083AC
:101640000C30C3040C430C30C308E0F8FFE3C000C7
:10165000000000003E5B4F5B3E3E6B4F6B3E1C3E0E
:101660007C3E1C183C7E3C181C577D571C1C5E7F22
:101670005E1C00183C1800FFE7C3E7FF00182418A1
:1016800000FFE7DBE7FF30483A060E2629792926D6
:10169000407F050507407F05253F5A3CE73C5A7FC0
:1016A0003E1C1C08081C1C3E7F14227F22145F5F16
:1016B000005F5F06097F017F006689956A60606050
:1016C000606094A2FFA29408047E040810207E208B
:1016D0001008082A1C08081C2A08081E10101010E0
:1016E0000C1E0C1E0C30383E3830060E3E0E060026
:1016F0000000000000005F00000007000700147FEA
:10170000147F14242A7F2A12231308646236495650
:1017100020500008070300001C2241000041221C49
:10172000002A1C7F1C2A08083E0808008070300030
:101730000808080808000060600020100804023E45
:101740005149453E00427F40007249494946214186
:10175000494D331814127F1027454545393C4A49F5
:101760004931412111090736494949364649492934
:101770001E00001400000040340000000814224144
:101780001414141414004122140802015909063ECD
:10179000415D594E7C1211127C7F494949363E41C8
:1017A0004141227F4141413E7F494949417F0909E9
:1017B00009013E414151737F0808087F00417F4184
:1017C000002040413F017F081422417F40404040BB
:1017D0007F021C027F7F0408107F3E4141413E7F13
:1017E000090909063E4151215E7F0919294626490A
:1017F00049493203017F01033F4040403F1F2040E1
:10180000201F3F4038403F631408146303047804EA
:10181000036159494D43007F4141410204081020B2
:10182000004141417F040201020440404040400029
:101830000307080020545478407F28444438384433
:10184000444428384444287F385454541800087EAF
:10185000090218A4A49C787F0804047800447D4001
:10186000002040403D007F1028440000417F4000A0
:101870007C047804787C080404783844444438FCB8
:101880001824241818242418FC7C0804040848543C
:1018900054542404043F44243C4040207C1C2040F9
:1018A000201C3C4030403C44281028444C909090F0
:1018B0007C4464544C44000836410000007700002A
:1018C000004136080002010204023C2623263C1E89
:1018D000A1A161123A4040207A38545455592155FB
:1018E000557941225454784221555478402054551A
:1018F00079400C1E52721239555555593954545469
:101900005939555454580000457C410002457D42E8
:101910000001457C407D1211127DF0282528F07CC5
:10192000545545002054547C547C0A097F4932495F
:101930004949323A4444443A324A4848303A4141AB
:10194000217A3A42402078009DA0A07D3D4242424B
:101950003D3D4040403D3C24FF2424487E494366B1
:101960002B2FFC2F2BFF0929F620C0887E0903208E
:10197000545479410000447D413048484A3238404F
:1019800040227A007A0A0A727D0D19317D262929B2
:101990002F28262929292630484D402038080808B4
:1019A0000808080808382F10C8ACBA2F102834FAD5
:1019B00000007B000008142A142222142A1408555F
:1019C00000550055AA55AA55AAFF55FF55FF00001E
:1019D00000FF00101010FF00141414FF001010FF7F
:1019E00000FF1010F010F0141414FC001414F70091
:1019F000FF0000FF00FF1414F404FC141417101F60
:101A000010101F101F1414141F00101010F00000ED
:101A100000001F101010101F10101010F010000008
:101A200000FF101010101010101010FF1000000018
:101A3000FF140000FF00FF00001F10170000FC044F
:101A4000F414141710171414F404F40000FF00F732
:101A500014141414141414F700F714141417141095
:101A6000101F101F141414F4141010F010F00000C4
:101A70001F101F0000001F14000000FC140000F0E5
:101A800010F01010FF10FF141414FF141010101F8A
:101A900000000000F010FFFFFFFFFFF0F0F0F0F09B
:101AA000FFFFFF0000000000FFFF0F0F0F0F0F38B8
:101AB00044443844FC4A4A4A347E02020606027E06
:101AC000027E0263554941633844443C04407E2011
:101AD0001E2006027E020299A5E7A5991C2A492A22
:101AE0001C4C7201724C304A4D4D303048784830B1
:101AF000BC625A463D3E494949007E0101017E2AA9
:101B00002A2A2A2A44445F444440514A44404044DB
:101B10004A51400000FF0103E080FF000008086B0D
:101B20006B083612362436060F090F060000181807
:101B30000000001010003040FF0101001F01011ED5
:101B400000191D1712003C3C3C3C00000000001135
:101B5000007F96290001007F9628003A0155C002B7
:101B60001010C10141C50400228040360168B00157
:101B700000B102B011B40102B60302023BB701C6C4
:101B80003A0155F704A9512C82B701C6E808408AEA
:101B900000002919A533C0020D0DC1024300C20186
:101BA00000C50400480048B40100B60302023BE04F
:101BB0000F0F211C0B0E084998380911031410004F
:101BC000E10F0F2F2B0C0E06477637071104231E4B
:101BD00000B00100B30402000000B40100D003070C
:101BE0004218D103000710D2020102D3020102D42D
:101BF000020102C005123B000211C103101088C58A
:101C00000103C60102C80C00323645061637757747
:101C1000540C00CC0100F603010100CF0300813019
:101C2000ED0464031281E803851078CB05392C009C
:101C30003402F70120EA020000B00100B102001BEB
:101C4000B40100C00121C10111C5023F3CC701B56B
:101C5000360148F20100260101E00F0F26240B0E89
:101C60000954A8460C17090F0700E10F00191B04BF
:101C700010072A473903060630380F360100B8012D
:101C800001C0010EB00100C10410100202C0060024
:101C90003500000102C50104D2020104CA0100EAB4
:101CA0000180B903FF83577F967F96B60125C00652
:101CB0005050013C1E08B4070240002A2A0D787FCC
:101CC00001F20B1616030808080810041616FD0387
:101CD000110235B2050C0C003333B70135BB012BB3
:101CE000C00104C20201FFC30111C40120C6010FDB
:101CF000D002A4A1E00ED000050E150D3743470910
:101D000015121619E10ED000050D0C062D44400EDB
:101D10001C1816193A01557F0A06000700B1020087
:101D200012B40102B60400202700CA0101CB01034E
:101D3000C001137F14C501CCC60100C70104C8014E
:101D400003CC0106CD011CF9021515F3030A020AA2
:101D5000F603011000FA00FB00B00103E2013FC0EE
:101D60000122E20100B00100C0010AB00100000040
:101D70000000000000000000000000000000FFFF65
:101D80000F0000040062080008080003000C0103B3
:101D90000B5A02030609030317100403002305036B
:101DA0000017060309630703090C08030C10090355
:101DB0003222100016001100010112000000130071
:101DC000010000013003010137020301000D800210
:101DD00000610201B0C1FFFF3200010000010200FA
:101DE000000103003010090001000C000000900009
:101DF00000800F000000100200001102EF0012022C
:101E0000000013028F01000500000105000002051B
:101E10005F000104010004040000FFFF320007001E
:101E20000001FFFF3200000200000102000000007C
:101E30000000000000000000000000000100A400FD
:101E40000100FFFF0A0060000027080008083000BA
:101E5000140231001537320004063300160E340028
:101E600011223500001536000785370007143800A9
:101E70000314390020009000150010001004110018
:101E80003702290046002A00460007000000120021
:101E9000890113000011FFFF96001200B901010033
:101EA00000010200000203003010090001000A00D6
:101EB00000000D0000000E003000610001006A000B
:101EC0000000800000008100000082005F0092009E
:101ED000000193000107FFFF500007000001E5002B
:101EE000F07801000001020000020300301004003D
:101EF00000000500000008000702090000000A00B9
:101F000000000C0000000D0000000F000000100099
:101F1000000011000700120000001300000007007D
:101F20000100FFFFC8001000901611002702FFFFFC
:101F3000320012000D00FFFF3200130000122900D2
:101F40000A002B000D00FFFF3200200000002100DE
:101F500000003000000031000404320003003500AE
:101F60000504360008083700070438000303390069
:101F700007073C0004053D000808600000276100D9
:101F800001006A0000008000000081000000820063
:101F90000000830000008400000085000000900025
:101FA00010009200000007003301E50000800000EF
:101FB00001000100000102000007030030100400CE
:101FC000000008000202090000000A0000000C00E6
:101FD00000000D0000000F000000100000001100C4
:101FE00007001200000013000000FFFF3200100085
:101FF000B01711000700FFFF0A0012003A01FFFFAF
:102000000A001300001A29000C00FFFF0A0030002C
:1020100000003100050532000400350006003600DE
:1020200007073700050138000200390007073C00A8
:1020300004073D000708600000A7610001006A0076
:10204000000021000000200000008000000081004E
:102050000000820000008300000084000000850072
:102060000000900010009200000093000300950013
:102070001001970000009800000007007301FFFFA7
:1020800032000100000102000007030030100800C8
:102090000203090000000A000800100000001100FF
:1020A00005001200000013000000FFFF6400100094
:1020B000B012FFFF320011000700FFFF32001200D4
:1020C0008C001300001729002000FFFF32003000B1
:1020D0000000310006013200010135000601360022
:1020E00003023700000038000707390004023C00F3
:1020F00006013D000301600000A76100010090009F
:10210000300007003301FFFF3200150030009A0055
:1021100010001100200010002834120002001300EB
:102120003810FFFF280012001200FFFF28001000E7
:10213000203413004530FFFF46003000000031001E
:1021400002043200070333000403340004003500A6
:102150000104360007073700050338001006390070
:102160001006010000010200000303003010080007
:1021700008080A00080060000027610001009000C4
:102180003E019200000193000001A0000030A30076
:1021900010000700010007002100070023000700CE
:1021A00033000700330111001A001200213113001F
:1021B0006C001400494210000008FFFF0A001100E3
:1021C0001A01FFFF0A0011001A03FFFF0A001100A5
:1021D0001A07FFFF0A0011001A0FFFFF0A00110083
:1021E0003A0FFFFF1E00010028010200000103005A
:1021F000301007001210080003030B0000110C0040
:1022000000000F00011815002000500001015100CE
:102210000306520008045300000054000506550050
:10222000060456000303570003035800100059002A
:10223000001007001200FFFF28000700130007002E
:10224000170000000000240027002A00B5006800E5
:1022500030003A006C000000080002010000030496
:10226000070000000000000000C3112A0F20007EBC
:10227000001501020408102040800102040810200B
:1022800001020408102000000000250028002B0097
:10229000040404040404040402020202020203030C
:1022A000030303039D28A33511241FBECFEFD8E0FD
:1022B000DEBFCDBF11E0A0E0B1E0ECEFFAE702C075
:1022C00005900D92A23CB107D9F723E0A2ECB1E052
:1022D00001C01D92A63BB207E1F711E1C3E5D1E1D0
:1022E00004C02197FE010E94AF37C235D107C9F75C
:1022F0000E942C290C94713D0C940000DC0180E1BB
:1023000012968C9312978FE014968C93149786E014
:1023100013968C93139787E015968C9315978CE200
:1023200091E017969C938E931697E7E9F2E2E49179
:10233000F0E0EE0FFF1FEA57FD4D8591949119963D
:102340009C938E931897E0EAF2E2E491F0E0EE0FAE
:10235000FF1FEA57FD4D859194911B969C938E9398
:102360001A97EFE9F2E2E491F0E0EE0FFF1FEA576F
:10237000FD4D859194911D969C938E931C97E6E953
:10238000F2E2E491F0E0EE0FFF1FEA57FD4D859178
:1023900094911F969C938E931E97E9E7F2E2E49145
:1023A0005096EC935097E2E8F2E2E4915296EC9367
:1023B0005297E1E8F2E2E4915196EC935197E8E705
:1023C000F2E2E4915396EC9353978AE090E08D9378
:1023D0009C93089590E0FC01EB5AFD4D2491FC0183
:1023E000EE58FD4D3491FC01E057FD4DE491EE2394
:1023F000B1F0222339F02330E9F090F4213001F1DB
:10240000223011F1F0E0EE0FFF1FEA57FD4DA591CC
:10241000B4918FB7F894EC913E2B3C938FBF089505
:102420002730A9F02830C9F0243061F7809180006E
:102430008F7D03C0809180008F7780938000E2CFF2
:1024400084B58F7784BDDECF84B58F7DFBCF80913F
:10245000B0008F778093B000D5CF8091B0008F7D92
:10246000F9CFCF93DF9390E0FC01EE58FD4D24911E
:1024700080579D4DFC0184918823D1F090E0880F16
:10248000991FFC01EE5BFD4DA591B491FC01EA574B
:10249000FD4DC591D49161110EC09FB7F8948C91F8
:1024A000E22FE0958E238C932881E223E8839FBF5F
:1024B000DF91CF9108958FB7F894EC91E22BEC93D4
:1024C0008FBFF6CF8E3008F08E5087708064809377
:1024D0007C0080917A00806480937A0080917A00F9
:1024E00086FDFCCF809178009091790008953FB7E8
:1024F000F8948091E3019091E401A091E501B091FD
:10250000E60126B5A89B05C02F3F19F00196A11D35
:10251000B11D3FBFBA2FA92F982F8827BC01CD012D
:10252000620F711D811D911D42E0660F771F881F8C
:10253000991F4A95D1F708958F929F92AF92BF92BB
:10254000CF92DF92EF92FF926B017C010E94771293
:102550004B015C01C114D104E104F104B9F00E9403
:102560007712681979098A099B09683E73408105C9
:10257000910580F321E0C21AD108E108F10888EE44
:10258000880E83E0981EA11CB11CE4CFFF90EF9051
:10259000DF90CF90BF90AF909F908F900895089557
:1025A000AF92BF92CF92DF92EF92FF920F931F9361
:1025B000CF93DF936C017B018B01040F151FEB019F
:1025C0005E01AE18BF08C017D10759F06991D60156
:1025D000ED91FC910190F081E02DC6010995892BC8
:1025E00079F7C501DF91CF911F910F91FF90EF9087
:1025F000DF90CF90BF90AF900895FC01538D448D34
:10260000252F30E0842F90E0821B930B541710F09D
:10261000CF96089501970895FC01918D828D9817AA
:1026200061F0A28DAE0FBF2FB11D5D968C91928D82
:102630009F5F9F73928F90E008958FEF9FEF0895B3
:10264000FC01918D828D981731F0828DE80FF11D7C
:10265000858D90E008958FEF9FEF0895FC01918D97
:10266000228D892F90E0805C9F4F821B91098F7390
:102670009927089588EE91E00E942E1321E0892B7E
:1026800009F420E0822F089580E090E0892B29F062
:102690000E943A1381110C9400000895FC01A48D4E
:1026A000A80FB92FB11DA35ABF4F2C91848D90E074
:1026B00001968F739927848FA689B7892C93A08957
:1026C000B1898C91837080648C93938D848D9813E1
:1026D00006C00288F389E02D80818F7D8083089574
:1026E000EF92FF920F931F93CF93DF93EC0181E062
:1026F000888F9B8D8C8D98131AC0E889F989808109
:1027000085FF15C09FB7F894EE89FF896083E8893B
:10271000F98980818370806480839FBF81E090E02D
:10272000DF91CF911F910F91FF90EF900895F62EBA
:102730000B8D10E00F5F1F4F0F731127E02E8C8D54
:102740008E110CC00FB607FCFACFE889F989808199
:1027500085FFF5CFCE010E944E13F1CFEB8DEC0F2C
:10276000FD2FF11DE35AFF4FF0829FB7F8940B8FB6
:10277000EA89FB8980818062CFCFCF93DF93EC0120
:10278000888D8823B9F0AA89BB89E889F9898C9159
:1027900085FD03C0808186FD0DC00FB607FCF7CF15
:1027A0008C9185FFF2CF808185FFEDCFCE010E9415
:1027B0004E13E9CFDF91CF9108950F931F93CF93DD
:1027C000DF93EC018B01FE01949131966491229686
:1027D0009F3799F470E090E080E00E949C1260E0E6
:1027E000E62FF0E032960E1B1F0B101611065CF35D
:1027F000DF91CF911F910F9108954398429885B131
:102800008C7F292F2370822B85B98BB183709C7F9D
:10281000892B8BB94198419A30E020E02617A8F423
:10282000FE01E20FF31FE491429A85B18C7F9E2F47
:102830009370892B85B98BB18370EC7FE82BEBB952
:102840004198419A2F5F3F4FE9CFC60FD11D439A60
:10285000C7CF4398429825B12C7F392F3370232B53
:1028600025B92BB123709C7F922B9BB94198419A3B
:1028700095B19C7F282F2370922B95B99BB19370B3
:102880008C7F892B8BB94198419A429AFA01615009
:1028900078F0219195B19C7F822F8370982B95B908
:1028A0008BB183702C7F822B8BB94198419AEFCFEB
:1028B000439A08954398429825B12C7F392F33705D
:1028C000232B25B92BB123709C7F922B9BB9419868
:1028D000419A95B19C7F282F2370922B95B99BB17B
:1028E00093708C7F892B8BB94198419A429A85B11C
:1028F0008C7F972F9370892B85B98BB183707C7FE8
:10290000782B7BB94198419A85B18C7F962F937033
:10291000892B85B98BB183706C7F682B6BB941981B
:10292000419A439A089581E08093E70184B18360DE
:1029300084B98AB18C6F8AB9389A399A3A9A3B9A93
:102940003C9A439A409A419A449A62E370E080E04C
:1029500090E00E949C12449864E670E080E090E071
:102960000E949C12449A64E670E080E090E00E942D
:102970009C1270E060E080EB90E00C945A141F937E
:10298000CF93DF93C82F162F8091E701811102C0EA
:102990000E9493144398429885B18C7F85B98BB17E
:1029A00083708BB94198419A95B19C7F8C2F83702D
:1029B000982B95B98BB18370CC7F8C2B8BB94198B8
:1029C000419A429A84B18C7F84B98AB183708AB962
:1029D00061E070E080E090E00E949C1261E070E0B5
:1029E00080E090E00E949C12409A40984098409865
:1029F000C3B1D9B1409A61E070E080E090E00E94FC
:102A00009C12409A40984098409883B199B1409A5E
:102A1000115020F7409A439A24B1236024B92AB177
:102A20002C6F2AB9C370DC7FCD2B83709C7F892BE0
:102A30009C2FDF91CF911F9108950F931F93CF93F8
:102A4000DF938C0160E00E94BF14EC0161E0C801DB
:102A50000E94BF148C01BE0190E080E0CB0177277B
:102A6000662730E020E0602B712B822B932BDF91C7
:102A7000CF911F910F910895FF920F931F93CF93C2
:102A8000DF938C0160E00E94BF14EC0161E0C8019B
:102A90000E94BF14F82E62E0C8010E94BF14AE016C
:102AA00070E060E0742F66275527442700E030E08F
:102AB00020E0402B5F29622B732B292F30E0C901C6
:102AC000B0E0A0E08A019B01082B192B2A2B3B2B9D
:102AD000C901B801DF91CF911F910F91FF90089527
:102AE0000F931F93CF93DF93EC018B01FE01859130
:102AF0009491FE0132962496659174918F3F9807C8
:102B000071F490E080E00E949C12045011091016AC
:102B1000110664F3DF91CF911F910F9108950E94E8
:102B20005A14F3CFFC01262F358D868D8295817046
:102B3000982F9627692F70E072A361A330FF0CC015
:102B4000821307C080E290E050E040E060E00C9427
:102B5000291481E290E0F8CF878D90A1833927E78F
:102B6000920741F058F4843521E0920791F08032C9
:102B70009445C1F4626081E094E012C0863223E99A
:102B80009207C1F3893025EB9207A1F38532924970
:102B900049F4660F771F660F771F636187E090E047
:102BA0000C945A1481E690E0FBCF8F929F92AF92E3
:102BB000BF92CF92DF92EF92FF920F931F93CF932A
:102BC000DF9300D000D0CDB7DEB77C014B015A01B6
:102BD0006901FC01878D90A18732F3E99F0709F015
:102BE00040C0F7018689823099F5F0E2AF0EB11C42
:102BF000005E1F4FF701858D80FF4AC085A5998231
:102C00008A82DB82CC82AE014F5F5F4F64E090E04E
:102C10000E942914F70181A9B982AA821B830C831F
:102C2000AE014F5F5F4F64E090E00E9429140F9067
:102C30000F900F900F90DF91CF911F910F91FF9008
:102C4000EF90DF90CF90BF90AF909F908F900895BE
:102C5000833081F620E2820E911C80E2C80ED11CE6
:102C6000C9CF8632954131F6F701868980FFC2CF00
:102C7000C801841B950B19F40F5F1F4FBBCF621760
:102C8000730709F0B7CF6B01C80ED91E8A01B2CF06
:102C9000B40187A190A50E945A14B501F70181A53E
:102CA00092A50E945A14C814D90421F40A151B05D0
:102CB00009F4BDCFF701858D85FF08C0868980FFA7
:102CC0001EC0102F0027A02AB12A8501B401F701E8
:102CD00085A596A50E945A14B501F70181A992A96C
:102CE0000E945A14B601F70187A590A90E945A14B0
:102CF000B801F70183A994A90E945A1498CFDC2C3B
:102D0000CC248C289D286401E1CFAF92BF92CF9252
:102D1000DF92EF92FF920F931F93CF93DF93EC011B
:102D20008091C201882349F0C701880F991F8E73D3
:102D30009927E1ECEE22E82AF92A37FF05C0620F55
:102D4000731F319521953109260F371F77FF02C078
:102D500070E060E088859985281739070CF4C9016F
:102D60006C01C61AD70A17FF05C0400F511F1195F5
:102D700001951109040F151F57FF02C050E040E0F4
:102D80002A853B85021713070CF498015901A41AF0
:102D9000B50A8901015011099C0121503109CE0168
:102DA0000E94D515439842983BA58CA525B12C7F50
:102DB000982F9370292B25B99BB193708C7F982BFA
:102DC0009BB94198419A95B19C7F832F8370982B32
:102DD00095B98BB183703C7F832B8BB94198419A15
:102DE000429ACA14DB042CF09A2D8B2D5601C92E61
:102DF000D82E9F2D4F2D43709C7F5E2D53702E2D0E
:102E00002C7FE22E1C141D04E4F4950185B18C7F07
:102E1000842B85B98BB18370892B8BB94198419AEA
:102E200085B18C7F852B85B98BB183708E298BB949
:102E30004198419A2150310949F781E0C81AD108D7
:102E4000E1CF439A8D8D80FF08C08F8D98A1863287
:102E5000954191F48E8980FF0FC00A851B85015032
:102E60001109288539852150310950E040E070E092
:102E700060E0CE010E94D515DF91CF911F910F9197
:102E8000FF90EF90DF90CF90BF90AF900895EF92BA
:102E9000FF920F931F93CF93DF937C01E90177FD9E
:102EA0002AC057FD28C0FC018085918568177907E5
:102EB00014F58285938548175907ECF48091C20177
:102EC000882341F0C901880F991F8E739927C17C0F
:102ED000C82BD92B8A019B01C7010E94D515BE01C1
:102EE000F70183A594A5DF91CF911F910F91FF90DA
:102EF000EF900C945A14DF91CF911F910F91FF9096
:102F0000EF900895EF92FF920F931F93CF93DF936B
:102F1000CDB7DEB72A970FB6F894DEBF0FBECDBF90
:102F20007C01862F8370F701868B962F917060FF4E
:102F3000F1C026813781F70131872087992309F471
:102F4000ECC024813581F70133872287823009F470
:102F5000E9C0833009F4E8C0813009F4E1C088E4B5
:102F60008A87F701258D368D30FF03C08A8580580A
:102F70008A8731FF04C08A8590E489278A8733FFD6
:102F800004C08A8598E089278A87F701878D90A1F8
:102F900020FFFAC08431F8E69F0709F0C7C09A8580
:102FA000892F88728A871F82892F85958074282FA0
:102FB0002260892F90E09595879580729927822BC2
:102FC00088878BE38987AE01495F5F4F63E086EBBB
:102FD00090E00E9429142AE230E0F70130A727A3ED
:102FE0008BE290E092A781A74CE250E054A743A760
:102FF00036A725A730AB27A792AB81AB94AB83ABA9
:10300000AE01465F5F4F61E086E390E00E942914C5
:103010008A8590E0F70194A383A3F701868980FF56
:103020001CC0858D968D92FD18C087A190A521A505
:1030300032A530A727A392A781A785A596A521A988
:1030400032A936A725A792AB81AB87A590A923A962
:1030500034A930AB27A794AB83ABF7010285138566
:1030600001501109208531852150310950E040E09F
:1030700070E060E0C7010E94D515F7016681778195
:10308000878D90A110E000E020E08732F3E99F07F0
:1030900069F4F7012689225010E000E0223010F494
:1030A00000E210E020E230E0201B310BF701458DFB
:1030B00040FF26C119820A837B836C831D822E8385
:1030C000AE014F5F5F4F66E083E390E00E942914FA
:1030D00019820A83AE014F5F5F4F62E087E390E0A1
:1030E0000E942914F701858D80FF07C050E040E061
:1030F00060E083E190E00E9429142A960FB6F894CC
:10310000DEBF0FBECDBFDF91CF911F910F91FF901A
:10311000EF900895248135810ECF2681378113CF1A
:1031200088E21ECF88E91CCF88EF1ACF833629E1C9
:10313000920749F0813834E9930729F08131E5E1BC
:103140009E0709F048CF2A8527FF02C021602A8701
:103150002A8526FF02C022602A878336F9E19F076D
:1031600021F48A858F738A8736CF813824E99207C4
:1031700019F48A858F72F7CF8131954109F02BCFF1
:103180008A858F7E806CEFCF2A85622F022E000CFD
:10319000770B8339F7E79F0761F008F042C0843569
:1031A000E1E09E0709F469C08032F4E59F0709F069
:1031B00041C020E032E0F70130A727A321E032E050
:1031C00032A721A722E032E034A723A720E132E092
:1031D00036A725A721E132E030AB27A722E132E074
:1031E00032AB21AB23E132E034AB23AB66277078FE
:1031F0008632F3E99F0709F480C08032944509F4D0
:103200007CC080E09AE6682B792B80E094E00E94F5
:103210005A146A85F4E06F9FB0011124662771701B
:1032200054C0863223E9920721F2893035EB9307A7
:1032300009F4BFCF80E290E0F70190A787A381E275
:1032400090E092A781A782E290E094A783A780E50F
:1032500090E096A785A781E590E090AB87A782E5EF
:1032600090E092AB81AB83E590E094AB83AB6627B3
:103270007078776280E690E0CACF87E390E0F7014C
:1032800096A785A786E390E090AB87A789E390E0B7
:1032900092AB81AB88E390E094AB83AB80E290E0AB
:1032A00090A787A381E290E092A781A782E290E0B5
:1032B00094A783A7662772706862F4E02F9FC0010D
:1032C000112488279170682B792B81E090E00E946F
:1032D0005A148A85682F70E075956795759567957E
:1032E0006870772783FD70616063F70174A363A33F
:1032F00083E090E00E945A1490CE80E095E383CF63
:103300008339F7E79F07D9F1F8F4803234E5930762
:10331000B1F18338E7E79E0739F184359140F9F43C
:10332000600F711F6150710981E390E00E945A148F
:10333000B80182E390E00E945A1470E060E083E3F9
:1033400090E00E945A14D9CE863223E99207B9F050
:10335000893035EB930799F08532924909F3F701EB
:1033600061A172A1626003C0F70161A172A181E64F
:1033700090E00E945A14B8018AE690E0E2CFF7018B
:1033800061A172A1626081E094E00E945A14B801C8
:1033900084E094E0D6CFEF92FF920F931F93DC016D
:1033A000ED91FC9100A0F1A1E02D7801890121E0CF
:1033B00030E009951F910F91FF90EF900895FC0167
:1033C000248D211102C0858D089580E00895FC01AF
:1033D000848D882319F0858D91E089270895FC015B
:1033E0008281938168177907A4F026813781820F43
:1033F000931F681779076CF42481358142175307AE
:1034000044F080859185280F391F81E042175307CA
:103410000CF080E008950895FC016370668B848150
:10342000958126813781613039F0633029F09187A9
:103430008087338722870895318720879387828703
:1034400008952F923F924F925F926F927F928F9248
:103450009F92AF92BF92CF92DF92EF92FF920F9323
:103460001F93CF93DF93CDB7DEB76A970FB6F8946B
:10347000DEBF0FBECDBF9A8F898F7A8369834A01E1
:10348000D22E18870F833701BC2CDC0159962D9161
:103490003C915A972115310509F015C118968D9167
:1034A0009C911997681779070CF0D7C11A968D91DE
:1034B0009C91481759070CF0D0C14C2C512CB6E008
:1034C000CB9E600D711D11247C876B871616170625
:1034D0000CF0C3C1EA2DF0E0FA87E98793E0EE0F24
:1034E000FF1F9A95E1F7F88BEF87CF01840F951FA7
:1034F000181619060CF0B1C1A98DBA8D58968C9189
:10350000811104C0BFEABD1508F4D394A98DBA8D0A
:10351000ED91FC9111970284F385E02DCD01099581
:10352000B5E0DB9EC0011124E981FA81FC83EB83C5
:10353000312C212C9C01215B394E388F2F8B4A2D49
:1035400050E05E8B4D8BEF89F88DE20DF31D4491B9
:103550009E828D82D12CC12C69817A81620D731D6E
:103560007A8B698B842F90E09C8B8B8BE98DFA8D05
:10357000A081B18140FF82C0F1E0BF126FC0AF12E5
:103580006DC01C96ED91FC912F813885A4014C0DE6
:103590005D1D69897A89898D9A8D0995EB89FC89E8
:1035A000F595E7954E2F5FEFC51AD50A6D817E819F
:1035B0008D899E89680F791F7E836D8398E0C91677
:1035C000D10481F6AFEF2A1A3A0AEB81FC81E40DAF
:1035D000F51DFC83EB83F5E02F16310409F0B3CF22
:1035E0002F81388526153705B9F0A98DBA8DED9153
:1035F000FC91B1E0BB1257C0AB1255C069817A8112
:103600006B5F7F4F0088F189E02D830128E030E077
:10361000A401898D9A8D0995A98DBA8DED91FC91A2
:1036200011970688F789E02DCD016A960FB6F894B8
:10363000DEBF0FBECDBFDF91CF911F910F91FF90E5
:10364000EF90DF90CF90BF90AF909F908F907F9042
:103650006F905F904F903F902F9009941E96ED9140
:10366000FC91EF80F88409851A8592014D815E8175
:103670006B817C81898D9A8D099590CF2F813885BA
:103680002615370509F48ACF31E0B31207C0A3121B
:1036900005C01C96ED91FC91930178CF1E96ED919B
:1036A000FC917301E0CF6B857C85641975090684F4
:1036B000F785E02D73010F8518899201A401898D8A
:1036C0009A8D0995A9CFF901349694913297459135
:1036D0005491D91AB7E0DB9E400D511D1124F90118
:1036E000259134913C8B2B8BFA0125903490FA0173
:1036F0003296749031963491398B3296649031962B
:10370000449041E04C1518F04A1508F07FC0662D32
:10371000062C000C770B7C836B83842D042C000C0F
:10372000990B9E838D83A98DBA8DED91FC91119794
:103730000284F385E02DCD010995512CD12CC12CAB
:10374000EA2DF0E0FA87E9872B2D30E03C872B87C4
:10375000A401440D511D47FC5A95588F4F8B698128
:103760007A81660D711D67FC7A957E876D877989F0
:10377000C71608F051CF2C2D30E04D815E81420FED
:10378000531FA985BA854A9FC0014B9F900D5A9F30
:10379000900D1124FC01E80DF91DF88BEF87852DA4
:1037A000612C4F89588D420F531F5E8B4D8B6714D0
:1037B00008F050C044244394480E877041F4C1017E
:1037C0000196EB89FC89E20DF31DD4901C01D7FE14
:1037D00019C0A98DBA8DED91FC91662D70E0B1E014
:1037E000BB1219C0AB1217C02D853E85620F731F27
:1037F0000484F585E02D2F8138854D895E89898D7A
:103800009A8D0995DD0C6394842DD1CF1E821D8283
:103810001C821B8288CF4B815C81640F751FAB8536
:10382000BC856A9FC0016B9F900D7A9F900D1124FB
:1038300069817A81680F791F0684F785E02DEF8012
:10384000F88409851A859D014F855889898D9A8D3F
:103850000995D8CF570CC3948ACF6A960FB6F894BF
:10386000DEBF0FBECDBFDF91CF911F910F91FF90B3
:10387000EF90DF90CF90BF90AF909F908F907F9010
:103880006F905F904F903F902F9008958F929F92EE
:10389000AF92CF92EF92FF920F931F93CF93DF934C
:1038A000EC01262F898D9A8D009709F051C06A305E
:1038B000D1F41D861C868D8948E0849F90011124D7
:1038C0008E859F85820F931F9F878E8781E090E072
:1038D000DF91CF911F910F91FF90EF90CF90AF901C
:1038E0009F908F9008956D3089F3CC88AD888F8933
:1038F0008823C1F08C859D8536E0C39E800D911D87
:103900001124488559854817590764F44E855F8509
:103910001D861C8638E0A39EC0011124840F951FCC
:103920009F878E87EA88FB88088919894E855F857D
:103930006C857D85CE010E94211A2C898C859D8500
:1039400046E0249F800D911D11249D878C87BECF5A
:103950006A3069F41D861C86FC013896E4912D8935
:103960008E859F85E29F800D911D1124ADCF6D3016
:1039700009F4ACCFFC0134963491631708F4A6CF58
:103980003296E491E61708F4A1CFFC0132968590B7
:103990009490462F431B342F47E0349F800C911C9A
:1039A0001124F401329634913196E4913323A9F134
:1039B000EE2399F1CC88F4013596E491AD884F89D6
:1039C000442301F10E2E000CFF0BE30FF11DCE9EE0
:1039D000A001CF9E500D11246C857D85460F571F89
:1039E00068857985641775076CF44E855F851D863B
:1039F0001C86FC013896E491AE9E400D511D1124A9
:103A00005F874E87EA88FB88088919894E855F851C
:103A10006C857D85CE010E94211AF4013496E491D3
:103A20002C898C859D85E29F800D911D11248DCF61
:103A30006F927F928F929F92AF92BF92CF92DF92BE
:103A4000EF92FF920F931F93CF93DF93EC016B01E3
:103A50005A0139014801E881F9810284F385E02D9A
:103A60000995E881F9810288F389E02D87019301A6
:103A7000A501B601CE010995A501480D591D41507A
:103A80005109E881F9810288F389E02D9301B6019B
:103A9000CE010995E881F9810088F189E02D940132
:103AA000A501B601CE010995C60CD71CB60161501F
:103AB0007109E881F9810088F189E02D9401A5015F
:103AC000CE010995E881F9810688F789E02DCE01BC
:103AD000DF91CF911F910F91FF90EF90DF90CF90EA
:103AE000BF90AF909F908F907F906F9009942F928E
:103AF0003F924F925F926F927F928F929F92AF927E
:103B0000BF92CF92DF92EF92FF920F931F93CF93CA
:103B1000DF93CDB7DEB72D970FB6F894DEBF0FBE9B
:103B2000CDBF5C011B0158874F833D872C870987D8
:103B3000FC82EB82360181E090E06C01C21AD30A6C
:103B4000C9019195819591099C01220F331F3A83F8
:103B50002983C70101969E838D83F12CE12C442497
:103B60004394512CDA011196BB87AA872C853D8599
:103B7000E216F3060CF070C08C849D84D7FC0BC059
:103B8000490131E0831A910889819A8102969A83CA
:103B90008983C80ED91E9FEFE91AF90AA2E04A0EDE
:103BA000511CC40CD51C8E149F0444F42C853D85F7
:103BB00028153905F1F49D868C86D8CF9401220F03
:103BC000331F4F81588548195909D501ED91FC9152
:103BD000B9858D819E81280F391F0088F189E02DDC
:103BE0008301B101B13009F56E0D7F1DC501099545
:103BF000DDCF9985913019F5920122503109AB81C1
:103C0000BC812A0F3B1F6C857D85620D731DD5011C
:103C1000ED91FC910088F189E02D83014A855B8557
:103C20004E195F09C5010995C6CF6E197F09C501F7
:103C30000995AC85BD85A815B90509F4BCCF9201DD
:103C4000225031098B819C81280F391FB101AC852D
:103C5000BD856A1B7B0BDBCF2D960FB6F894DEBFBC
:103C60000FBECDBFDF91CF911F910F91FF90EF90CD
:103C7000DF90CF90BF90AF909F908F907F906F908C
:103C80005F904F903F902F9008952F923F924F92C8
:103C90005F926F927F928F929F92AF92BF92CF92DC
:103CA000DF92EF92FF920F931F93CF93DF9300D099
:103CB00000D000D0CDB7DEB79E838D834B013A0193
:103CC0006901802F21E030E029014C185D08222491
:103CD00033242C183D08220C331CB12CA12C01E0FC
:103CE00010E0982F94709983A82FA270AA83B82F00
:103CF000B870BB8381708C83AC14BD040CF0A7C07A
:103D000057FC08C081E0C81AD10892E0290E311C86
:103D1000420C531CAFEFAA1ABA0A0E5F1F4F400E97
:103D2000511EB981BB2311F1AD81BE81ED91FC9192
:103D300011970484F585E02D9701A601460D571DC6
:103D4000B4016A0D7B1DCD010995AD81BE81ED9158
:103D5000FC9111970484F585E02D9701A3014A0D8C
:103D60005B1DB601680D791DCD010995BA81BB2394
:103D700011F1AD81BE81ED91FC9111970484F5851F
:103D8000E02D9701A3014C195D09B4016A0D7B1D5B
:103D9000CD010995AD81BE81ED91FC91119704840F
:103DA000F585E02D9701A3014A195B09B601680D5D
:103DB000791DCD010995BB81BB2311F1AD81BE8178
:103DC000ED91FC9111970484F585E02D9701A301F5
:103DD0004A0D5B1DB4016C197D09CD010995AD81BA
:103DE000BE81ED91FC9111970484F585E02D97013A
:103DF000A601460D571DB4016A197B09CD0109952D
:103E0000BC81BB2309F478CFAD81BE81ED91FC91DB
:103E100011970484F585E02D9701A3014A195B09E8
:103E2000B4016C197D09CD010995AD81BE81ED917B
:103E3000FC9111970484F585E02D9701A3014C199D
:103E40005D09B4016A197B09CD01099555CF269604
:103E50000FB6F894DEBF0FBECDBFDF91CF911F919B
:103E60000F91FF90EF90DF90CF90BF90AF909F9019
:103E70008F907F906F905F904F903F902F9008951C
:103E80006F927F928F929F92AF92BF92CF92DF926A
:103E9000EF92FF920F931F93CF93DF935C01EB019F
:103EA0006A01490138018701DC01ED91FC9162173B
:103EB000730719F5641675062CF0962D872D3A01B7
:103EC000C92ED82E9601261937092F5F3F4F048C33
:103ED000F58DE02DA301BE01C5010995DF91CF91BC
:103EE0001F910F91FF90EF90DF90CF90BF90AF9018
:103EF0009F908F907F906F9008954615570591F48D
:103F00002617370724F0892D4B01C22FD82F9E0189
:103F1000281939092F5F3F4F068CF78DE02DA60138
:103F2000B401DACF0284F385E02D0995D501ED9136
:103F3000FC910488F589E02D83019401A601BE015E
:103F4000C5010995D501ED91FC910688F789E02D11
:103F5000C501DF91CF911F910F91FF90EF90DF90FE
:103F6000CF90BF90AF909F908F907F906F9009946B
:103F7000EF92FF920F931F93DC011A960D911C9103
:103F80001B9718962D913C911997ED91FC9100A0EB
:103F9000F1A1E02D7B0150E040E070E060E0099588
:103FA0001F910F91FF90EF9008954F925F926F9243
:103FB0007F928F929F92AF92BF92CF92DF92EF92B9
:103FC000FF920F931F93CF93DF936C012B015A0144
:103FD00039014801DC01ED91FC910284F385E02D6B
:103FE0000995E201640C751CD601ED91FC91C61592
:103FF000D7055CF40088F189E02D87019401A501C3
:10400000BE01C60109952196EFCF0688F789E02DFC
:10401000C601DF91CF911F910F91FF90EF90DF903C
:10402000CF90BF90AF909F908F907F906F905F9058
:104030004F9009948F929F92AF92BF92CF92DF924E
:10404000EF92FF920F931F93CF93DF93EC015B01ED
:104050004A016901E881F9810284F385E02D09951F
:1040600095012C0D3D1D21503109E881F98104880D
:10407000F589E02D78018401A401B501CE010995EF
:10408000E881F9810688F789E02DCE01DF91CF9193
:104090001F910F91FF90EF90DF90CF90BF90AF9066
:1040A0009F908F9009948F929F92AF92BF92CF92E0
:1040B000DF92EF92FF920F931F93CF93DF93EC0168
:1040C0005B014A0169017801E881F9810284F38585
:1040D000E02D0995C80CD91C860101501109E88111
:1040E000F9810488F589E02D9501A401B501CE017F
:1040F0000995E881F9810688F789E02DCE01DF91E5
:10410000CF911F910F91FF90EF90DF90CF90BF90D4
:10411000AF909F908F9009940895EF92FF920F9324
:104120001F93DC01ED91FC9100A0F1A1E02D099518
:104130001F910F91FF90EF9008950F931F93DC0153
:10414000ED91FC91068CF78DE02D09951F910F9153
:1041500008950F931F93DC01ED91FC91048CF58D74
:10416000E02D09951F910F910895DC01ED91FC91CF
:104170000084F185E02D09942F923F924F925F9237
:104180006F927F928F929F92AF92BF92CF92DF9267
:10419000EF92FF920F931F93CF93DF9300D000D045
:1041A00000D0CDB7DEB73C016A013E832D83FC828F
:1041B000EB825801A41AB50AB7FE03C0B194A194CA
:1041C000B1088D809E80861A970A97FE03C091944D
:1041D000819491088A149B045CF0902F812F0D81AB
:1041E0001E819D838E839C2D8D2D6B01692F782FD1
:1041F0000C151D055CF09D818E817E836D83692F7A
:10420000782F902F812F8601C92ED82E1601201AC3
:10421000310A2B012D813E81421A530A57FE03C0F9
:10422000519441945108710137FE03C03FEFE31AE6
:10423000F30AF594E7948D819E81861797075CF5C4
:10424000A1E0B0E0BA83A983C016D1064CF1D30136
:10425000ED91FC910484F585E02D2B813C81A80132
:104260006D817E818A149B041CF04D815E81B801B2
:10427000C3010995E418F508F7FE0AC02D813E81B7
:1042800089819A81280F391F3E832D83E20CF31C0C
:104290000F5F1F4FD9CF2FEF3FEF3A832983D4CF42
:1042A00026960FB6F894DEBF0FBECDBFDF91CF913B
:1042B0001F910F91FF90EF90DF90CF90BF90AF9044
:1042C0009F908F907F906F905F904F903F902F9036
:1042D000089590E080E00895EF92FF920F931F936E
:1042E000DC011A960D911C911B9718962D913C910B
:1042F0001997ED91FC9100A0F1A1E02D7B0150E018
:1043000040E070E060E009951F910F91FF90EF9001
:104310000895EF92FF920F931F93DC01ED91FC91B2
:1043200000A0F1A1E02D780101E010E009951F91B6
:104330000F91FF90EF900895FB0101900020E9F7A5
:104340003197AF01461B570BDC01ED91FC910280C8
:10435000F381E02D0994E5E8F2E0A9E6B2E2B28F3C
:10436000A18F90E09587848770E07787668780EEDD
:104370009FEF938B828B918B808B448B458BB90104
:10438000CF010E949C216AE070E080E090E00C94F4
:104390009C12EF92FF920F931F9380919E02909137
:1043A0009F02892B49F48091930290919402069682
:1043B00090939402809393028CE492E290939F02F4
:1043C00080939E028FE198EF9093980280939702DA
:1043D000909396028093950281E080939902809356
:1043E0009A02F12CE12C0AE510E02BEE30E04EE1D0
:1043F00050E061E070E085E892E00E94851681E07F
:1044000090E0909392028093910284E690E09093E2
:1044100094028093930263E071E085E892E00E9449
:104420009C2120918D0230918E020FEF1FEF48E703
:1044300050E070E060E085E892E00E9489211F91E1
:104440000F91FF90EF9008952F923F924F925F92BD
:104450006F927F928F929F92AF92BF92CF92DF9294
:10446000EF92FF920F931F93CF93DF93CDB7DEB7F9
:104470002E970FB6F894DEBF0FBECDBF9E878D87F7
:10448000DC015096BC91B987FC01F189FA87DC0107
:104490001C960D90BC91A02DBA83A983FC01868443
:1044A0009784662331F0982D892D89849A84998781
:1044B0008A87AD85BE851696CD90DC9017971896A5
:1044C000AD90BC90C601CA14DB0408F0C5019695F6
:1044D000879596958795ED85FE8540805180282F9C
:1044E00030E03C832B8364807580828193819E833E
:1044F0008D83CA14DB042CF4C601D7FE05C00196D7
:1045000003C0C501B7FCFBCF959587952B803C80F8
:10451000821593050CF41C01D201ED91FC910284EB
:10452000F385E02DC2010995F101EE0FFF1FF88719
:10453000EF832D813E81220D331D3C872B87960111
:104540002E1B3F0BD201ED91FC910684F785E02DE7
:1045500074018501A3016B857C85C2010995EF81FA
:10456000F885AE1ABF0AF1E0AF1AB108620C731CED
:104570006D817E816C0D7D1D621973096150710919
:104580006401750101E09101A301C2010E94771D40
:1045900002E09101A3016B857C85C2010E94771D19
:1045A000D201ED91FC910688F789E02DC2010995B1
:1045B000ED85FE85C080D180A084B184E680F7803F
:1045C00064807580228133813E832D83EA14FB044D
:1045D0002CF4C701F7FE05C0019603C0C501B7FC66
:1045E000FBCF959587958B809C80881599050CF459
:1045F0004C01D601ED91FC910284F385E02DC601BA
:1046000009951401220C331CF701E219F309FC830C
:10461000EB834D805E80480C591CD601ED91FC91D6
:104620000288F389E02D09811A812B813C81A30145
:10463000B201C6010995F501E60DF71DF887EF8374
:10464000AF0141505109D601ED91FC910288F389E7
:10465000E02D09811A812B813C81B201C6010995A7
:10466000F501E219F3091F01680C791CD601ED91DF
:10467000FC910088F189E02D09811A819101A30143
:104680006D817E81C6010995AD80BE80AE0CBF1CD8
:10469000B50161507109D601ED91FC910088F18955
:1046A000E02D09811A819101A301C6010995E980D4
:1046B000FA8001E09401A301B201C6010E94451EE7
:1046C000A818B908B1E0AB1AB108E980FA8002E095
:1046D0009401A301B501C6010E94451E6F80788434
:1046E00068187908E1E06E1A7108E980FA8004E040
:1046F0009401A301B501C6010E94451EE980FA801C
:1047000008E09401A301B201C6010E94451ED60132
:10471000ED91FC910688F789E02DC6010995AD85DC
:10472000BE85ED91FC91119718968D919C911997EA
:104730009695879514962D913C911597820F931F0E
:104740001B962C91B4E02B9F8019910911246D8543
:104750007E856E5E7F4FDB010D900020E9F7AD0195
:1047600041505109461B570BAD85BE8516962D91BC
:104770003C911797369527951296ED90FC901397DC
:104780002E0D3F1D1A96FC9013E0F19ED0011124CE
:10479000A49F7001A59FF00CB49FF00C11242E195A
:1047A0003F093587248797878687AD85BE85ED913C
:1047B000FC91B985B28B1A85138BB08B118BAD85AB
:1047C000BE85ED91FC9111971B968C911B971A96C3
:1047D0009C91911101C091E0948B811101C081E005
:1047E000858BED85FE85808191812E960FB6F8949C
:1047F000DEBF0FBECDBFDF91CF911F910F91FF9014
:10480000EF90DF90CF90BF90AF909F908F907F9070
:104810006F905F904F903F902F900C949C21CF937E
:10482000DF93FC01C481D581209729F41092030104
:10483000DF91CF910895615071096C177D0708F4DD
:10484000EB01FC0160817181AE0183E091E00E9487
:10485000C13ACD5FDE4F1882EBCF0E94AC3A0F9386
:104860001F93CF93DF938C01EB01FC018081918139
:104870000097E1F06881798161157105A9F04281A5
:1048800053812C813D814217530770F00E94BA3A40
:104890008C819D81F801958384831D821C82DF9128
:1048A000CF911F910F9108950E9466398881998157
:1048B000F801918380838A819B81938382838C8199
:1048C0009D8195838483198218821B821A82E5CF89
:1048D000FC0180819181009711F00C946639089554
:1048E0000F931F93CF93DF93EC01888199810097F9
:1048F00059F02A813B812617370730F081E0DF919C
:10490000CF911F910F9108958B016F5F7F4F0E9490
:10491000EF39009759F0998388831B830A832C8190
:104920003D81232B59F7FC011082E8CF80E0E7CFCF
:10493000EF92FF920F931F93CF93DF936115710551
:1049400041F480E0DF91CF911F910F91FF90EF90A4
:10495000089541155105B1F07B01EC010C811D81D9
:10496000040F151FB8010E947024882351F3288179
:1049700039818C819D81B701820F931F0E94BA3AC1
:104980001D830C8381E0DECF41E050E060E671E002
:104990000C949824EF92FF920F931F93CF93DF9381
:1049A00000D000D0CDB7DEB77C01862F4AE08E0163
:1049B0000F5F1F4FB80190E00E94C335F8010190CE
:1049C0000020E9F73197AF01401B510BB801C70137
:1049D0000E9498240F900F900F900F90DF91CF912D
:1049E0001F910F91FF90EF900895EF92FF920F9318
:1049F0001F93CF93DF93EC017B018A01BA010E94E0
:104A0000702428813981811114C02115310519F0D4
:104A1000C9010E946639198218821D821C821B827C
:104A20001A82CE01DF91CF911F910F91FF90EF90ED
:104A300008951D830C83B701C9010E94BA3AF1CFD2
:104A4000FB0101900020E9F73197AF01461B570B9E
:104A50000C94F5240F931F93CF93DF93CDB7DEB75C
:104A600029970FB6F894DEBF0FBECDBF8C01862FFD
:104A7000F8011182108213821282158214824AE098
:104A8000BE016F5F7F4F90E00E94CE35BE016F5F29
:104A90007F4FC8010E94202529960FB6F894DEBFEB
:104AA0000FBECDBFDF91CF911F910F910895CF938E
:104AB000DF93EC01FB018617970749F06081718154
:104AC0006115710541F0448155810E94F524CE01A4
:104AD000DF91CF91089588819981009711F00E940C
:104AE0006639198218821D821C821B821A82EFCFBE
:104AF000EF92FF920F931F93CF93DF9300D0CDB728
:104B0000DEB780919E0290919F02892B49F080919F
:104B1000930290919402069790939402809393024B
:104B200010929F0210929E028091DD0191E08927F0
:104B30008093DD01882309F481C062E671E08AEB8D
:104B400092E00E94202519821A8241E050E0BE01C5
:104B50006F5F7F4F8AEB92E00E9498246AEB72E0CD
:104B6000CB010E94572566E070E08AEB92E00E943C
:104B70000F2428E631E042E060EA87E30E94AB219F
:104B800080919E0290919F02892B49F0809193021F
:104B900090919402069790939402809393021092BE
:104BA0009F0210929E0285E090E090938303809391
:104BB000820388EC90E0909385038093840386E4DD
:104BC00090E0909387038093860388E290E090932F
:104BD0008903809388038FEF9FEF90938D038093D9
:104BE0008C0320EE37E030938F0320938E03909355
:104BF00091038093900382E080938A0380938B03D8
:104C000085E892E0909381038093800349E050E02F
:104C10006FE671E082E993E00E94C13A10929B0333
:104C200060E080E893E00E9424220F900F90DF91D3
:104C3000CF911F910F91FF90EF900895F12CE12CEF
:104C40000EE110E02BEE30E047E850E061E070E06C
:104C500085E892E00E94851685E090E090938303BA
:104C60008093820388EC90E0909385038093840383
:104C700086E490E0909387038093860388E290E037
:104C800090938903809388038FEF9FEF90938D0318
:104C900080938C038FEF97E090938F0380938E0324
:104CA000109291031092900382E080938A03809384
:104CB0008B0385E892E0909381038093800349E021
:104CC00050E062E671E0A6CF0F931F93CF93DF937E
:104CD00000D000D000D0CDB7DEB76091D001709188
:104CE000D1018091D2019091D3010091D401109112
:104CF000D5012091D6013091D701600F711F821F1D
:104D0000931F20E83EEE46E350E00E947237822F68
:104D1000283108F0A0C02093CF011091CF011A30A4
:104D200008F0A1C068E771E084EE92E00E942025BF
:104D300065E771E088ED92E00E942025612F88ED03
:104D400092E00E94CA2488ED92E00E94C4248091DF
:104D5000CF0196EF980F67E771E09A3020F0843129
:104D600030F068E771E084EE92E00E9420256091C7
:104D7000D0017091D1018091D2019091D301009125
:104D8000D4011091D5012091D6013091D701600F47
:104D9000711F821F931F20E83EEE46E350E00E9401
:104DA000723720E63AEE40E050E00E947237122F50
:104DB0002093CB012A3008F067C065E771E082EDEF
:104DC00092E00E942025612F82ED92E00E94CA2489
:104DD00062ED72E08CEC92E00E94572582ED92E049
:104DE0000E94C42419821A8241E050E0BE016F5F24
:104DF0007F4F8CEC92E00E9498244091D002509119
:104E0000D1026091CC027091CD0288ED92E00E94B7
:104E100098244091DC025091DD026091D80270919B
:104E2000D90284EE92E00E94982464EE72E0CB01F5
:104E30000E94572568E070E084EE92E00E940F2403
:104E400026960FB6F894DEBF0FBECDBFDF91CF918F
:104E50001F910F91089568E10E94A33798EE899FF2
:104E6000200D112458CF612FCE0101960E942A25D2
:104E7000BE016F5F7F4F88ED92E00E942F24CE012C
:104E800001960E9468245FCF622FCE0101960E9496
:104E90002A25BE016F5F7F4F82ED92E00E942F2492
:104EA000CE0101960E94682493CF0F931F93CF9356
:104EB000DF93CDB7DEB764970FB6F894DEBF0FBEB1
:104EC000CDBF8091D8019091D901A091DA01B09124
:104ED000DB014091C3015091C4016091C501709103
:104EE000C601841B950BA60BB70B883E9340A1050A
:104EF000B10508F468C04091010128EE33E0429FFB
:104F0000C001439F900D1124092E000CAA0BBB0B6E
:104F10004091D4015091D5016091D6017091D70193
:104F2000840F951FA61FB71F8093D4019093D501BE
:104F3000A093D601B093D7010E9464268091D80136
:104F40009091D901A091DA01B091DB018093C30166
:104F50009093C401A093C501B093C6018091CB0189
:104F600090910001891779F1809300010E94C92175
:104F7000809101011F928F932091CF018091CB01ED
:104F800090E03CE3239F800D911D11249F938F930C
:104F90008AE791E09F938F938E010F5F1F4F1F93BE
:104FA0000F930E94D03AB80188EE91E00E949C21B4
:104FB00065E871E088EE91E00E949C210FB6F894BC
:104FC000DEBF0FBECDBF64960FB6F894DEBF0FBE36
:104FD000CDBFDF91CF911F910F9108951F920F9236
:104FE0000FB60F9211242F933F938F939F93AF93FC
:104FF000BF938091DF019091E001A091E101B09118
:10500000E2013091DE0123E0230F2D3758F50196A0
:10501000A11DB11D2093DE018093DF019093E0017B
:10502000A093E101B093E2018091E3019091E4014A
:10503000A091E501B091E6010196A11DB11D8093FB
:10504000E3019093E401A093E501B093E601BF91E1
:10505000AF919F918F913F912F910F900FBE0F9025
:105060001F90189526E8230F0296A11DB11DD2CFDF
:105070001F920F920FB60F9211242F933F934F93CD
:105080005F936F937F938F939F93AF93BF93EF93B0
:10509000FF9388EE91E00E944E13FF91EF91BF9134
:1050A000AF919F918F917F916F915F914F913F91C0
:1050B0002F910F900FBE0F901F9018951F920F9277
:1050C0000FB60F9211242F938F939F93EF93FF931B
:1050D000E091F801F091F9018081E091FE01F091F9
:1050E000FF0182FD1BC09081809101028F5F8F7351
:1050F00020910202821741F0E0910102F0E0E851B4
:10510000FE4F958F80930102FF91EF919F918F91B8
:105110002F910F900FBE0F901F9018958081F4CFA4
:10512000FC0111821082138212821582148250E0D7
:1051300040E067E871E00C94F524E8EEF1E01382BA
:10514000128288EE93E0A0E0B0E084839583A6838A
:10515000B78386E291E09183808385EC90E0958728
:10516000848784EC90E09787868780EC90E0918B31
:10517000808B81EC90E0938B828B82EC90E0958B1E
:10518000848B86EC90E0978B868B118E128E138E1B
:10519000148E8EE993E00E947E111092810310928A
:1051A00080031092630310926203109245031092E1
:1051B00044031092270310922603109209031092C1
:1051C00008031092EB021092EA0284EE92E00E9431
:1051D00090288EED92E00E94902888ED92E00E9447
:1051E000902882ED92E00E9490288CEC92E00E9440
:1051F000902886EC92E00E94902880EC92E00E9439
:1052000090288AEB92E00E949028E5E8F2E0138271
:10521000128220EF30E03583248380E491E097838D
:1052200086833187208793878287168A158614861E
:105230001786168681E0858B848B2FEF3FEF338BAB
:10524000228B318B208B878B108E128E118E88E3F0
:1052500091E0918380830895CF93DF93CDB7DEB73C
:1052600067970FB6F894DEBF0FBECDBF789484B5B4
:10527000826084BD84B5816084BD85B5826085BD52
:1052800085B5816085BD80916E00816080936E00E0
:1052900010928100809181008260809381008091D2
:1052A0008100816080938100809180008160809383
:1052B00080008091B10084608093B1008091B00043
:1052C00081608093B00080917A00846080937A003E
:1052D00080917A00826080937A0080917A00816068
:1052E00080937A0080917A00806880937A0010928F
:1052F000C100E091F801F091F90182E08083E09132
:10530000F401F091F5011082E091F601F091F701BE
:1053100080E1808310920002E091FC01F091FD0198
:1053200086E08083E091FA01F091FB018081806149
:105330008083E091FA01F091FB0180818860808395
:10534000E091FA01F091FB01808180688083E09117
:10535000FA01F091FB0180818F7D80832FB7F89453
:105360008091DF019091E001A091E101B091E20113
:105370002FBF8093D8019093D901A093DA01B09305
:10538000DB01CE0101960E947E1160E090E080E09A
:105390000E94BF147C01883024E5920779F18032A5
:1053A00044E5940759F18938994809F430C160E01F
:1053B00087E690E00E94BF14B7E4EB2EB3E8FB2E23
:1053C00087349744D9F08FEE90E00E943C157B0122
:1053D0006732734999F081EA90E00E941D15A3E6B7
:1053E000EA2EA9E1FA2E6130E1E67E0739F06F3F3F
:1053F0007607D9F576E2E72E75E1F72E0E94931431
:105400001092A1021092A002F092A502E092A402D2
:1054100081E3E81680E8F80611F40C94493308F0AB
:10542000C8C1A3E5EA16A0E2FA0611F40C9496337B
:1054300008F04CC1E1E1EE16E5E1FE0609F4A5C273
:1054400008F010C129E9E216F10411F40C94593363
:1054500008F0F1C080E091E1EA94EF2809F4F9C086
:1054600010928A02109289028DC261157F4F29F431
:1054700060E2E62E65E1F62EC1CF8FEB90E00E9450
:105480003C157B01673543E8740709F4B7CF6138F1
:10549000744909F4B3CF81E1E81685E1F80609F40F
:1054A000ADCF90E2E91695E1F90611F3A6E2EA160E
:1054B000A5E1FA0609F49ECFB1E8EB16B5E1FB06CB
:1054C00009F49CCFE114E4E1FE0609F4A5C084EDE3
:1054D00090E00E941D157B016031734509F48ECF69
:1054E00087ED90E00E941D157B016133704809F43F
:1054F00085CF8EEF90E00E941D15672F782F892FA2
:1055000099277B016335704209F478CF84E090E0FD
:105510000E941D157B01811157C06115704809F06B
:1055200053C08091180190911901A0911A018D8B9F
:105530009E8BAF8BAE014B5E5F4F63E089EB90E0DB
:105540000E94291460E080ED90E00E94BF1439E9C8
:10555000E32EF12C893909F451CF40E9E42EFE2CD9
:10556000803909F44BCF83ED90E00E941D15672F21
:10557000782F892F99277B016336714909F43ECF33
:1055800083ED90E00E941D15872FE62EF72EF9E29D
:10559000EF16F2E3FF0609F431CF8359823088F128
:1055A000783979F1773769F1763159F123EDE216DF
:1055B000F10409F423CF43EDE416F406E1F496E890
:1055C000E92E94E9F92E1ACF86E2E81685E1F8066D
:1055D00009F410CF90EFE91699E8F90611F1A2E568
:1055E000EA16A5E8FA0611F1B1E1EB16BCEAFB06F2
:1055F00009F0B9CF03CF60E090E080E00E94BF14D3
:105600007C0153EDE516F50609F0F8CED8CF89E810
:10561000E82E82E1F82EF2CEF4E1EF2EF8E6FF2E2E
:10562000EDCEE5E3EE2EE7E7FE2EE8CE79E8E72EB5
:1056300077E7F72EE3CE84E5E81681E0F80609F473
:1056400095C195E0E91695E1F90609F009CF84E0E6
:1056500090E19093A3028093A20268ED70E08AEA41
:105660009FE18EC1A6E2EA16A5E1FA0609F4BAC7DF
:1056700098F4E0E2EE16E5E1FE0609F0F1CE83E1F2
:1056800094E09093A3028093A20206E010E055E616
:10569000E52E5DE1F52E91C1F1E8EF16F5E1FF068B
:1056A00011F40C94A23322E0E21626E1F20609F08E
:1056B000D7CE83E094E09093A3028093A20206E009
:1056C00010E07EE7E72E7CE1F72E77C149E0E41693
:1056D00048E6F40611F40C94723338F585E3E816C5
:1056E00085E4F80609F48BC798F4A9E2EA16A2E368
:1056F000FA0609F0B5CE83E096E09093A30280937A
:10570000A20200E410E039E1E32E3DE1F32E55C1A1
:10571000B0E1EB16B3E5FB0609F47CC7E8E0EE1652
:10572000E4E5FE0609F493CF9BCEF9E8EF16F7E720
:10573000FF0609F4A1C7B8F444E1E41648E6F4060C
:1057400009F481C753E8E51657E7F50609F088CE56
:1057500082E091E19093A3028093A20268E870E056
:1057600082E890E20DC183E9E81687E7F80611F4B4
:105770000C94D73396E9E91697E7F90609F070CE4D
:1057800083E094E09093A3028093A20280EE91E0E4
:1057900090938C0280938B0280E491E090938A0234
:1057A000809389020DE010E029E8E22E2BE1F22E31
:1057B00004C1A8E3EA16A3E9FA0609F4BDC708F094
:1057C0005DC0E5E2EE16E3E9FE0609F446C090F599
:1057D00020E9E216F20609F469C7F8F483E094E1DF
:1057E00057E5E51653E8F50609F03ACE9093A30283
:1057F0008093A20280EE91E090938C0280938B02C2
:1058000080E491E090938A028093890202E010E0A4
:10581000AFEBEA2EACE1FA2ED0C082E0E81683E9C5
:10582000F80609F486C790E2E91693E9F90609F447
:105830000ECF16CEA9E2EA16A3E9FA0609F47FC74D
:1058400078F4E7E2EE16E3E9FE0609F456C7F8E25B
:10585000EF16F3E9FF0609F003CE80E091E144C7BB
:1058600021E3E21623E9F20631F045E3E41643E9C9
:10587000F40609F0F5CD80E090E136C759E8E51669
:1058800054E9F50608F042C087E8E81684E9F8060E
:1058900008F074C791E8E91694E9F90609F46BC7B2
:1058A000B0F4B0E4EB1AB3E9FB0AE2E0EE16F1045F
:1058B00008F0D6CD83E194E09093A3028093A202F6
:1058C00005E610E056E1E52E5CE1F52E76C0F6E83F
:1058D000EF16F4E9FF0609F0C3CD83E094E090935E
:1058E000A3028093A20280EE91E090938C028093B9
:1058F0008B0280E491E090938A02809389020BE30B
:1059000010E036E9E32E3BE1F32E57C025E0E21626
:1059100025EBF20601F198F483E194E151E1E516FB
:105920005CEAF50609F09CCD9093A3028093A20255
:1059300003E010E06BE7E62E6CE1F62E3EC089E056
:10594000E81685EBF80609F432C795E0E91695EC00
:10595000F90609F085CD88E090E19093A302809349
:10596000A20260EB70E08EE29EE10AC082E090E16C
:105970009093A3028093A2026CE970E086EA91E220
:105980000E947015F12CE12C18C083E090E09093F8
:10599000A3028093A20280EE91E090938C02809308
:1059A0008B0280E491E090938A028093890203E065
:1059B00010E06BE6E62E6DE1F62E2091A302822F19
:1059C00082958F7090E0817099279093A7028093C1
:1059D000A602E114F10481F069E070E085E59BE145
:1059E0000E94DD13B801C7010E94DD1366E070E07C
:1059F0008FE49BE10E94DD1360E085E892E00E9465
:105A0000821760E085E892E00E9492158091A402DE
:105A10009091A5028838944909F016C11092C201EC
:105A200020EE3FEF50E040E070E060E085E892E07B
:105A30000E944717F090B002E090B1028091A2025C
:105A400080FF03C08EE2F82EE12C8091A402909199
:105A5000A5028230964119F40EE2F02EE12C10E0FE
:105A600000E030E020E050E040E070E060E085E8F9
:105A700092E00E94D5158091A20280FD10C070E0D6
:105A800060E08091AC029091AD020E945A1470E0E7
:105A900060E08091AE029091AF020E945A14439848
:105AA000429885B18C7F9E2D9370892B85B99BB1CF
:105AB0009370EE2DEC7FEE2EE92AEBB84198419AD7
:105AC00085B18C7F9F2D9370892B85B99BB1937085
:105AD000FF2DFC7FFF2EF92AFBB84198419A429A8C
